:100000000C9458000C9480000C9480000C94800098
:100010000C9480000C9480000C9480000C94800060
:100020000C9480000C9480000C9480000C94800050
:100030000C9480000C9480000C9480000C94800040
:100040000C9432020C9480000C94B2040C94E404DE
:100050000C9480000C9480000C9480000C94800020
:100060000C9480000C948000000000080002010045
:100070000003040700000000000000000102040863
:100080001020408001020408102001020408102002
:10009000040404040404040402020202020203032E
:1000A0000303030300000000250028002B001405B3
:1000B00011241FBECFEFD8E0DEBFCDBF11E0A0E01E
:1000C000B1E0EEE7FCE002C005900D92AE38B1075A
:1000D000D9F722E0AEE8B1E001C01D92AD37B2071A
:1000E000E1F710E0C0EBD0E004C02297FE010E94CF
:1000F0003906CE3AD107C9F70E9458050C943D063F
:100100000C94000040ED57E060E070E080EA91E080
:100110000E94990120E835E240E050E060EE71E095
:1001200080EA91E00E94AC0180EA91E00E94960191
:1001300060E071E08091D1019091D2010E94A5050B
:100140006AE070E080E090E00E94AB0241E060E095
:1001500080EA91E00E94170226E040E855E260E064
:1001600070E080EE91E00E9450041092970110928E
:1001700096011092950110929401109293011092A1
:100180009201109291011092900110928F011092A1
:100190008E010895CF92DF92EF92FF920F931F93FB
:1001A0000E947C02672B682B692B41F40E947C0221
:1001B000623071058105910508F476C00E947C02C9
:1001C000609398017093990180939A0190939B0199
:1001D00000919C0110919D0120919E0130919F0101
:1001E000601771078207930740F460939C01709336
:1001F0009D0180939E0190939F0100919C0110911D
:100200009D0120919E0130919F016B017C01C01ADC
:10021000D10AE20AF30A970186010A3F1105210576
:10022000310508F441C060939C0170939D01809357
:100230009E0190939F0180EA91E00E94960162E105
:1002400071E08091D1019091D2010E94A5056AE1EF
:1002500071E08091D1019091D2010E94A5050E9488
:100260007C02AB01BC012AE030E08091D101909189
:10027000D2010E9400066CE171E08091D101909161
:10028000D2010E94A50562E070E080E090E00E944B
:10029000AB026AE070E080E090E00E94AB0261E0B7
:1002A00080EA91E00E94D90161E08DE00E9437036D
:1002B00068EE73E080E090E00E94AB0260E08DE0C9
:1002C0000E94370368EE73E080E090E01F910F9189
:1002D000FF90EF90DF90CF900C94AB020F931F93A1
:1002E000CF93DF93EC01662359F00E947C0269836F
:1002F0007A838B839C83DF91CF911F910F91089517
:100300000E947C0209811A812B813C81601B710B48
:10031000820B930B613271058105910530F763E023
:1003200070E080E090E00E94AB02EACF60E00C94C5
:100330006E01FC0113AA14AA15AA16AA1182128230
:1003400013821482411551056105710521F0CB011D
:10035000BA010C94AB020895FB01BA01A901DC01BA
:10036000D296FC93EE93D19726E0CF010C945004E3
:100370001F93CF93DF93EC01162F65E271E089A9FB
:100380009AA90E94A5054AE050E0612F89A99AA97F
:100390000E940D066CE271E089A99AA90E94A50548
:1003A00062E370E080E090E0DF91CF911F910C94C8
:1003B000AB021F93CF93DF93EC01162F8D8188231F
:1003C00089F189A99AA9DC01ED91FC910480F5815C
:1003D000E02D0995892BA9F307C02637310519F1BE
:1003E0002835310509F41D8289A99AA9DC01ED910E
:1003F000FC910480F581E02D09951816190694F4F6
:1004000089A99AA9DC01ED91FC910680F781E02D84
:1004100009959C01332723363105F9F6612FCE016A
:100420000E94B80183E6DF91CF911F9108950F9349
:100430001F93CF93DF931F92CDB7DEB78C01662356
:1004400049F081E0F801858360E0C80149830E949A
:10045000D9014981F80145830F90DF91CF911F9118
:100460000F9108951F920F920FB60F9211242F93A0
:100470003F938F939F93AF93BF938091D8019091B7
:10048000D901A091DA01B091DB013091D70123E0CD
:10049000230F2D3720F40196A11DB11D05C026E8BC
:1004A000230F0296A11DB11D2093D7018093D8017F
:1004B0009093D901A093DA01B093DB018091DC0124
:1004C0009091DD01A091DE01B091DF010196A11DA7
:1004D000B11D8093DC019093DD01A093DE01B09308
:1004E000DF01BF91AF919F918F913F912F910F901D
:1004F0000FBE0F901F9018952FB7F8946091D801F8
:100500007091D9018091DA019091DB012FBF08959C
:100510003FB7F8948091DC019091DD01A091DE015C
:10052000B091DF0126B5A89B05C02F3F19F00196B9
:10053000A11DB11D3FBF6627782F892F9A2F620F0B
:10054000711D811D911D42E0660F771F881F991F45
:100550004A95D1F70895CF92DF92EF92FF92CF9311
:10056000DF936B017C010E948802EB01C114D1046E
:10057000E104F10489F00E9414060E9488026C1BB9
:100580007D0B683E734090F381E0C81AD108E10802
:10059000F108C851DC4FEACFDF91CF91FF90EF9087
:1005A000DF90CF900895789484B5826084BD84B53F
:1005B000816084BD85B5826085BD85B5816085BD5E
:1005C000EEE6F0E0808181608083E1E8F0E0108277
:1005D000808182608083808181608083E0E8F0E0B8
:1005E000808181608083E1EBF0E0808184608083A2
:1005F000E0EBF0E0808181608083EAE7F0E08081D9
:100600008460808380818260808380818160808338
:100610008081806880831092C1000895833081F0CA
:1006200028F4813099F08230A1F008958730A9F044
:100630008830B9F08430D1F4809180008F7D03C080
:10064000809180008F7780938000089584B58F77A4
:1006500002C084B58F7D84BD08958091B0008F77EE
:1006600003C08091B0008F7D8093B00008950F93F8
:100670001F93CF93DF931F92CDB7DEB7282F30E0C3
:10068000F901E859FF4F8491F901E458FF4F1491A3
:10069000F901E057FF4F04910023C9F0882321F0AE
:1006A00069830E940E036981E02FF0E0EE0FFF1FC7
:1006B000EC55FF4FA591B4919FB7F8948C916111BF
:1006C00003C01095812301C0812B8C939FBF0F9095
:1006D000DF91CF911F910F910895FC01818D228DA3
:1006E00090E0805C9F4F821B91098F73992708953A
:1006F000FC01918D828D981731F0828DE80FF11DEC
:10070000858D90E008958FEF9FEF0895FC01918D06
:10071000828D981761F0828DDF01A80FB11D5D9663
:100720008C91928D9F5F9F73928F90E008958FEFD1
:100730009FEF08958AE095E0892B49F080E090E0F2
:10074000892B29F00E940A0581110C94000008955C
:10075000FC01848DDF01A80FB11DA35ABF4F2C915E
:10076000848D90E001968F739927848FA689B7892D
:100770002C93A089B1898C9180648C93938D848D06
:10078000981306C00288F389E02D80818F7D8083D5
:100790000895CF93DF93EC01888D8823C9F0EA890F
:1007A000FB89808185FD05C0A889B9898C9186FD6A
:1007B0000FC00FB607FCF5CF808185FFF2CFA88967
:1007C000B9898C9185FFEDCFCE010E94A803E7CFB8
:1007D000DF91CF910895CF92DF92FF920F931F93F5
:1007E000CF93DF931F92CDB7DEB76C0181E0D601C6
:1007F00058968C9358975B969C915B975C968C91DE
:100800005C97981307C05096ED91FC9151978081A9
:1008100085FD2EC0F601038D10E00F5F1F4F0F7393
:100820001127F02EF601848DF81211C00FB607FCC7
:10083000F9CFD6015096ED91FC915197808185FFBB
:10084000F1CFC60169830E94A8036981EBCF838D34
:10085000E80FF11DE35AFF4F6083D6015B960C93BE
:100860005B975296ED91FC915397808180620CC00A
:10087000D6015696ED91FC91579760835096ED9175
:10088000FC91519780818064808381E090E00F909B
:10089000DF91CF911F910F91FF90DF90CF9008953E
:1008A000BF92CF92DF92EF92FF92CF93DF93EC0152
:1008B0006A017B01B22EE889F98982E080834115C3
:1008C00081EE580761057105A1F060E079E08DE3E4
:1008D00090E0A70196010E941506215031094109B7
:1008E00051095695479537952795211580E1380789
:1008F00098F0E889F989108260E874E88EE190E068
:10090000A70196010E94150621503109410951099C
:100910005695479537952795EC85FD853083EE856F
:10092000FF852083188EEC89FD89B082EA89FB89D6
:10093000808180618083EA89FB89808188608083EF
:10094000EA89FB89808180688083EA89FB898081CC
:100950008F7D8083DF91CF91FF90EF90DF90CF90DC
:10096000BF9008951F920F920FB60F9211242F93EC
:100970008F939F93EF93FF93E091F001F091F1013A
:100980008081E091F601F091F70182FD12C0908123
:100990008091F9018F5F8F732091FA01821751F0D6
:1009A000E091F901F0E0E052FE4F958F8093F9015C
:1009B00001C08081FF91EF919F918F912F910F90B6
:1009C0000FBE0F901F9018951F920F920FB60F92A7
:1009D00011242F933F934F935F936F937F938F9344
:1009E0009F93AF93BF93EF93FF9380EE91E00E94AC
:1009F000A803FF91EF91BF91AF919F918F917F914C
:100A00006F915F914F913F912F910F900FBE0F907B
:100A10001F90189580EE91E00E946D0321E0892BD4
:100A200009F420E0822F08951092E3011092E20170
:100A300088EE93E0A0E0B0E08093E4019093E501BC
:100A4000A093E601B093E70181E891E09093E10182
:100A50008093E00185EC90E09093ED018093EC01B0
:100A600084EC90E09093EF018093EE0180EC90E0B5
:100A70009093F1018093F00181EC90E09093F30169
:100A80008093F20182EC90E09093F5018093F40161
:100A900086EC90E09093F7018093F6011092F901B3
:100AA0001092FA011092FB011092FC010895089532
:100AB0000E94D3020E9457050E948200CAE9D3E037
:100AC0000E94CA002097E1F30E949A03F9CFCF92C7
:100AD000DF92EF92FF920F931F93CF93DF937C01EE
:100AE0006A01EB0100E010E00C151D0571F0699141
:100AF000D701ED91FC910190F081E02DC70109959E
:100B0000892B19F00F5F1F4FEFCFC801DF91CF91F5
:100B10001F910F91FF90EF90DF90CF900895611596
:100B2000710581F0DB010D900020E9F7AD01415026
:100B30005109461B570BDC01ED91FC910280F381BA
:100B4000E02D099480E090E008950C948F058F9239
:100B50009F92AF92BF92CF92DF92EF92FF920F934C
:100B60001F93CF93DF93CDB7DEB7A1970FB6F8945D
:100B7000DEBF0FBECDBF7C01C42EE52FCB01D22E30
:100B800019A221E02D1510F02AE0D22E8E010F5D62
:100B90001F4F8D2C912CA12CB12C6C2D7E2FA501DB
:100BA00094010E9415068C2DD29E801911240150AB
:100BB00011098A3014F4805D01C0895CF8018083DA
:100BC000211531054105510521F0C22EE32FCA013F
:100BD000E4CFB801C7010E948F05A1960FB6F89423
:100BE000DEBF0FBECDBFDF91CF911F910F91FF9060
:100BF000EF90DF90CF90BF90AF909F908F9008952F
:100C00002115310541F4DC01ED91FC910190F08159
:100C1000E02D642F09940C94A7059A01462F50E00B
:100C200060E070E00C9400060895A1E21A2EAA1B61
:100C3000BB1BFD010DC0AA1FBB1FEE1FFF1FA2178C
:100C4000B307E407F50720F0A21BB30BE40BF50B89
:100C5000661F771F881F991F1A9469F76095709512
:100C6000809590959B01AC01BD01CF010895EE0FD9
:0E0C7000FF1F0590F491E02D0994F894FFCF3A
:100C7E00564D4450565F317C315F564D4450560DA3
:100C8E000A00564D4450455F31007C005F564D447E
:100C9E0050450D0A00564D4450435F005F564D447B
:100CAE0050430D0A004572726F723A20417474659A
:100CBE006D707420746F207365742061207265618D
:100CCE00642D6F6E6C79207661726961626C65203D
:100CDE006F7220646174612074797065206E6F7418
:100CEE0020737570706F727465640D0A00000000D9
:0E0CFE0000EB0367056D0386037803C903004E
:00000001FF
