:100000000C9458000C9480000C9480000C94800098
:100010000C9480000C9480000C9480000C94800060
:100020000C9480000C9480000C9480000C94800050
:100030000C9480000C9480000C9480000C94800040
:100040000C9427010C9480000C948E030C94C00334
:100050000C9480000C9480000C9480000C94800020
:100060000C9480000C948000000000080002010045
:100070000003040700000000000000000102040863
:100080001020408001020408102001020408102002
:10009000040404040404040402020202020203032E
:1000A0000303030300000000230026002900F003DF
:1000B00011241FBECFEFD8E0DEBFCDBF11E0A0E01E
:1000C000B1E0ECEBFAE002C005900D92A031B1076F
:1000D000D9F721E0A0E1B1E001C01D92A23CB20736
:1000E000E1F710E0C0EBD0E004C02297FE010E94CF
:1000F0005805CE3AD107C9F70E9434040C945C0528
:100100000C94000026E040E052EC61E070E085E2F3
:1001100091E00E942C0310921B0110921A01109280
:1001200019011092180110921701109216011092E5
:1001300015011092140110921301109212010895EA
:100140000E94200221E030E0892B11F420E030E011
:10015000C901089582E090E00E94A00090931B01E5
:1001600080931A0183E00E942002909319018093EA
:10017000180184E00E9420029093170180931601D9
:1001800085E00E942002909315018093140186E07F
:100190000E942002909313018093120120911A0172
:1001A00030911B01232B89F1209118013091190105
:1001B00021303105B1F42091160130911701213021
:1001C000310551F420911401309115012130310590
:1001D00019F481309105E1F0892BE9F085E090E098
:1001E0000895232BD9F781309105C1F0892BB1F700
:1001F0008091140190911501019799F08091160159
:1002000090911701019751F70CC080E090E008959C
:1002100081E090E0089582E090E0089583E090E02E
:10022000089584E090E008950E94AA00909311013F
:10023000809310014AE050E0BC0185E291E00E9409
:100240002B0564EF71E080E090E00C9494011F9224
:100250000F920FB60F9211242F933F938F939F937A
:10026000AF93BF9380911D0190911E01A0911F013A
:10027000B091200130911C0123E0230F2D3720F491
:100280000196A11DB11D05C026E8230F0296A11DF0
:10029000B11D20931C0180931D0190931E01A0931A
:1002A0001F01B09320018091210190912201A09122
:1002B0002301B09124010196A11DB11D809321015C
:1002C00090932201A0932301B0932401BF91AF9199
:1002D0009F918F913F912F910F900FBE0F901F9084
:1002E00018953FB7F8948091210190912201A09137
:1002F0002301B091240126B5A89B05C02F3F19F01A
:100300000196A11DB11D3FBF6627782F892F9A2F17
:10031000620F711D811D911D42E0660F771F881FBE
:10032000991F4A95D1F70895CF92DF92EF92FF92ED
:10033000CF93DF936B017C010E947101EB01C1142B
:10034000D104E104F10489F00E9433050E94710197
:100350006C1B7D0B683E734090F381E0C81AD10896
:10036000E108F108C851DC4FEACFDF91CF91FF904F
:10037000EF90DF90CF900895789484B5826084BD2B
:1003800084B5816084BD85B5826085BD85B5816099
:1003900085BDEEE6F0E0808181608083E1E8F0E0F9
:1003A0001082808182608083808181608083E0E828
:1003B000F0E0808181608083E1EBF0E08081846007
:1003C0008083E0EBF0E0808181608083EAE7F0E009
:1003D000808184608083808182608083808181606D
:1003E00080838081806880831092C100089583306B
:1003F00081F028F4813099F08230A1F0089587309F
:10040000A9F08830B9F08430D1F4809180008F7DDC
:1004100003C0809180008F7780938000089584B519
:100420008F7702C084B58F7D84BD08958091B00020
:100430008F7703C08091B0008F7D8093B0000895C6
:10044000CF93DF93282F30E0F901E859FF4F8491D3
:10045000F901E458FF4FD491F901E057FF4FC491DF
:10046000CC2391F081110E94F701EC2FF0E0EE0F08
:10047000FF1FEC55FF4FA591B4912C912D2381E0E6
:1004800090E021F480E002C080E090E0DF91CF9125
:100490000895FC01818D228D90E0805C9F4F821B2E
:1004A00091098F7399270895FC01918D828D98177A
:1004B00031F0828DE80FF11D858D90E008958FEF6A
:1004C0009FEF0895FC01918D828D981761F0828DC8
:1004D000DF01A80FB11D5D968C91928D9F5F9F7378
:1004E000928F90E008958FEF9FEF089586EE93E04E
:1004F000892B49F080E090E0892B29F00E94E603E7
:1005000081110C9400000895FC01848DDF01A80F77
:10051000B11DA35ABF4F2C91848D90E001968F732B
:100520009927848FA689B7892C93A089B1898C914A
:1005300080648C93938D848D981306C00288F38910
:10054000E02D80818F7D80830895CF93DF93EC0130
:10055000888D8823C9F0EA89FB89808185FD05C0E3
:10056000A889B9898C9186FD0FC00FB607FCF5CF1D
:10057000808185FFF2CFA889B9898C9185FFEDCF65
:10058000CE010E948402E7CFDF91CF910895CF92F0
:10059000DF92FF920F931F93CF93DF931F92CDB7FC
:1005A000DEB76C0181E0D60158968C9358975B9624
:1005B0009C915B975C968C915C97981307C05096C2
:1005C000ED91FC915197808185FD2EC0F601038D40
:1005D00010E00F5F1F4F0F731127F02EF601848D6F
:1005E000F81211C00FB607FCF9CFD6015096ED9165
:1005F000FC915197808185FFF1CFC60169830E94EC
:1006000084026981EBCF838DE80FF11DE35AFF4F20
:100610006083D6015B960C935B975296ED91FC91AB
:100620005397808180620CC0D6015696ED91FC9163
:10063000579760835096ED91FC915197808180642B
:10064000808381E090E00F90DF91CF911F910F9117
:10065000FF90DF90CF900895BF92CF92DF92EF92FC
:10066000FF92CF93DF93EC016A017B01B22EE88900
:10067000F98982E08083411581EE58076105710593
:10068000A1F060E079E08DE390E0A70196010E947F
:10069000340521503109410951095695479537953F
:1006A0002795211580E1380798F0E889F9891082AB
:1006B00060E874E88EE190E0A70196010E9434059D
:1006C000215031094109510956954795379527958C
:1006D000EC85FD853083EE85FF852083188EEC89BF
:1006E000FD89B082EA89FB89808180618083EA8903
:1006F000FB89808188608083EA89FB8980818068AA
:100700008083EA89FB8980818F7D8083DF91CF910F
:10071000FF90EF90DF90CF90BF9008951F920F92BF
:100720000FB60F9211242F938F939F93EF93FF9304
:10073000E0913501F09136018081E0913B01F0912B
:100740003C0182FD12C0908180913E018F5F8F73CA
:1007500020913F01821751F0E0913E01F0E0EB5D06
:10076000FE4F958F80933E0101C08081FF91EF91F4
:100770009F918F912F910F900FBE0F901F90189502
:100780001F920F920FB60F9211242F933F934F9306
:100790005F936F937F938F939F93AF93BF93EF93E9
:1007A000FF9385E291E00E948402FF91EF91BF9157
:1007B000AF919F918F917F916F915F914F913F91F9
:1007C0002F910F900FBE0F901F90189585E291E02A
:1007D0000E94490221E0892B09F420E0822F08952C
:1007E000109228011092270188EE93E0A0E0B0E07B
:1007F0008093290190932A01A0932B01B0932C019F
:1008000084E091E0909326018093250185EC90E0AF
:10081000909332018093310184EC90E09093340105
:100820008093330180EC90E0909336018093350102
:1008300081EC90E0909338018093370182EC90E056
:1008400090933A018093390186EC90E090933C01BB
:1008500080933B0110923E0110923F0110924001A3
:1008600010924101089508950E94BC010E94330432
:100870000E948200C6E7D2E00E9414012097E1F3B3
:100880000E947602F9CFCF92DF92EF92FF920F9300
:100890001F93CF93DF937C016A01EB0100E010E02E
:1008A0000C151D0571F06991D701ED91FC91019036
:1008B000F081E02DC7010995892B19F00F5F1F4FBB
:1008C000EFCFC801DF91CF911F910F91FF90EF9073
:1008D000DF90CF9008956115710581F0DB010D90D7
:1008E0000020E9F7AD0141505109461B570BDC01CF
:1008F000ED91FC910280F381E02D099480E090E07D
:100900000895DC01ED91FC910190F081E02D0994B6
:100910008F929F92AF92BF92CF92DF92EF92FF920F
:100920000F931F93CF93DF93CDB7DEB7A1970FB689
:10093000F894DEBF0FBECDBF7C01C42EE52FCB01E6
:10094000D22E19A221E02D1510F02AE0D22E8E0110
:100950000F5D1F4F8D2C912CA12CB12C6C2D7E2F57
:10096000A50194010E9434058C2DD29E801911247A
:10097000015011098A3014F4805D01C0895CF801CE
:100980008083211531054105510521F0C22EE32F49
:10099000CA01E4CFB801C7010E946B04A1960FB64B
:1009A000F894DEBF0FBECDBFDF91CF911F910F91A5
:1009B000FF90EF90DF90CF90BF90AF909F908F907F
:1009C0000895CF92DF92EF92FF920F931F93CF93F0
:1009D000DF93EC016A017B012115310579F4E8818F
:1009E000F9810190F081E02D642FDF91CF911F916B
:1009F0000F91FF90EF90DF90CF9009942A3031054E
:100A0000E9F477FF1AC06DE20E9481048C0144274B
:100A10005527BA014C195D096E097F092AE0CE01FC
:100A20000E948804800F911FDF91CF911F910F9139
:100A3000FF90EF90DF90CF9008952AE0B701A601D4
:100A4000CE01DF91CF911F910F91FF90EF90DF903A
:100A5000CF900C9488049A01AB01662757FD6095EE
:100A6000762F0C94E1040895A1E21A2EAA1BBB1B59
:100A7000FD010DC0AA1FBB1FEE1FFF1FA217B3076A
:100A8000E407F50720F0A21BB30BE40BF50B661F80
:100A9000771F881F991F1A9469F760957095809544
:100AA00090959B01AC01BD01CF010895EE0FFF1F92
:0C0AB0000590F491E02D0994F894FFCF1C
:100ABC0000000000C7024304490262025402A5026E
:00000001FF
